:020000040000FA
:10000000680120206D0100007101000073010000F3
:1000100000000000000000000000000000000000E0
:10002000000000000000000000000000750100005A
:10003000000000000000000077010000F502000051
:100040007B0100007B0100007B0100007B010000C0
:100050007B0100007B0100007B0100007B010000B0
:10006000000000007B0100007B0100000000000098
:10007000000000007B0100007B0100007B0100000C
:100080007B0100007B0100007B0100007B01000080
:100090007B0100007B010000000000000000000068
:1000A0007B0100007B010000000000000000000058
:1000B0007B010000000000007B0100007B010000CC
:1000C00000F002F800F042F812A030C808382418F6
:1000D0002D18AC4201D100F039F80FCCA246AB4646
:1000E0000CA730CF2D1B083F3F197C427F1E544484
:1000F0002D090426F441641EAC4201D300F026F819
:100100000126334200D0FB1A3343984754465D46DC
:10011000DFE7000094020000A402000000000000DD
:100120007047000000000000002300240025002686
:10013000103A01D378C1FBD8520700D330C100D5A3
:100140000B6070471FB51FBD10B510BD00F027F83C
:100150001146FFF7F7FF00F0D5F800F03FF803B4C1
:10016000FFF7F2FF03BC00F045F800000648004727
:10017000FEE7FEE7FEE7FEE7FEE7FEE70348044989
:10018000024A044B70470000C100000068002020B4
:10019000680120206800202070477047704775462E
:1001A00000F024F8AE46050069465346C008C0007A
:1001B000854618B020B5FFF7E1FF60BCB6460026C3
:1001C0000027C0C5C0C5C0C5C0C5C0C5C0C5C0C565
:1001D000C0C5403D490849008D46704710B50446EA
:1001E000C046C0462046FFF7BAFF10BD0048704722
:1001F0000000202001491820ABBEFEE726000200C7
:100200007047811E091F00BFFCD27047084809498A
:10021000016009488121C161016001620748012133
:10022000016001633120800505490860086370475B
:100230000480424081000100C8804240A0120A4070
:10024000A0320A400D48002101600320C1430C4840
:10025000021F13680B401360416801229143416003
:10026000110242688A434260016830229143016072
:1002700001680F22914301607047C04608030B409C
:1002800004010B40084809494160FF210906084A5A
:1002900013688B430321890759181160002181607D
:1002A000072101607047C04610E000E0FF7C0000BD
:1002B00020ED00E080B500F007F8FFF7A7FFFFF79B
:1002C000C1FFFFF7DFFF80BD80B5064806494160EA
:1002D000064A51600649016011601020FFF791FF46
:1002E00080BDC04600080A40030000B100280A4053
:1002F000010000262A480168002902D00168491E31
:1003000001607047FFF7D6FF7D20C00001218A05FC
:100310008B06CC06214E224F00E034611E4D296130
:1003200038603D68002D08D03D68002D05D03D683F
:10033000002D02D03D68002DF3D1174D29603260A9
:1003400038603D68002D08D03D68002D05D03D681F
:10035000002D02D03D68002DF3D13261336038604A
:100360003D68002D08D03D68002D05D03D68002D6A
:1003700002D03D68002DF3D13361346038603D68B0
:10038000002DCAD03D68002DC7D03D68002DC4D0D7
:100390003D68002DF3D1C0E790120A4090320A4028
:1003A0006000202000000000B803000000002020B2
:0803B0006801000028010000B3
:04000005000000C136
:00000001FF
